:100000000C948D190C94BE190C94BE190C94BE1945
:100010000C94BE190C94BE190C94BE190C94BE1904
:100020000C94BE190C94BE190C94BE190C94BE19F4
:100030000C94BE190C94BE190C94BE190C94BE19E4
:100040000C94BE190C948C5A0C94BE190C94BE19C5
:100050000C94BE190C94BE190C943DBD0C94A3C510
:100060000C94BE190C94FD3E0C94BE190C94BE1950
:100070000C94BE190C94BE190C94BE190C94BE19A4
:100080000C94BE620C94BE190C94BE190C94BE194B
:100090000C94BE190C94BE190C94BE190C94BE1984
:1000A0000C94BE190C94BE190C9490620C94BE1959
:1000B0000C94BE190C94BE190C94BE190C94626277
:1000C0000C94BE190C94BE190C94BE190C94BE1954
:1000D0000C94BE190C94BE190C94BE190C94BE1944
:1000E0000C94BE194D907F9081908E9093904B9080
:1000F0009C90C89FCB9FBA9FBE9FC49F02A0CF9FDA
:10010000D39FD99FDD9FE19FE79FEB9FEF9F02A0C9
:10011000F59FF99FFD9F42A647A64CA656A660A64E
:10012000D9A66AA672A67AA684A68EA698A6A7A61F
:10013000B1A6D9A6BBA6C5A6CFA6084AD73B3BCE3B
:10014000016E84BCBFFDC12F3D6C74319ABD5683D6
:100150003DDA3D00C77F11BED9E4BB4C3E916BAA8E
:10016000AABE000000803F05A84CCDB2D44EB938DD
:1001700036A9020C50B9918688083CA6AAAA2ABEC4
:10018000000000803F000D94D8010D94B7014E414E
:100190004E494E495459494E46CDCCCC3D0AD72301
:1001A0003C17B7D13877CC2B329595E6241FB14F49
:1001B0000A000020410000C84200401C4620BCBE8E
:1001C0004CCA1B0E5AAEC59D74434F4D4D554E49FA
:1001D000434154494F4E0044525952554E004552E6
:1001E000524F525300494E464F004543484F004737
:1001F000322F47332062616420706172616D6574D3
:100200006572730A00536C6565702E2E2E00486F60
:100210006D652058592066697273740A00486F6DC5
:100220006520585920666972737400205A3A20007C
:1002300020593A200042656420583A20004D6573E9
:100240006820706F696E742063616E6E6F742062D7
:1002500065207265736F6C7665640A00436C696330
:100260006B20746F20726573756D652E2E2E004E97
:100270006F206D6F76652E00456E642066696C6533
:10028000206C6973740A00426567696E2066696C48
:1002900065206C6973740A00286E6F2066696C654E
:1002A00029005344207072696E74696E6720627908
:1002B000746520004E6F74205344207072696E7410
:1002C000696E670A0043757272656E742066696CA8
:1002D000653A20002569730025696D202569730042
:1002E0002569682025696D202569730025696420CA
:1002F0002569682025696D202569730025697920A5
:10030000256964202569682025696D2025697300A9
:100310005072696E742074696D653A2000EA01E5D7
:1003200001DE01D701C9016F6666004445425547A9
:100330003A004B494C4C45442E20004D313133207E
:1003400053006F6B0050533A310A0050533A300A51
:10035000003344205072696E746572204F66662EB9
:10036000002C20002C2000544845524D414C5F5039
:10037000524F54454354494F4E004155544F5245F6
:10038000504F52545F53445F5354415455530045AA
:100390004D455247454E43595F50415253455200D7
:1003A000434153455F4C494748545F42524947488F
:1003B000544E45535300544F47474C455F4C4947B3
:1003C00048545300534F4654574152455F504F577E
:1003D0004552004255494C445F50455243454E54A6
:1003E000004C4556454C494E475F44415441005AE4
:1003F0005F50524F4245004155544F4C4556454C75
:10040000005052494E545F4A4F420050524F47529B
:10041000455353004155544F5245504F52545F5429
:10042000454D5000564F4C554D455452494300459B
:100430004550524F4D0053455249414C5F584F4E25
:100440005F584F4646004649524D574152455F4E10
:10045000414D453A4D61726C696E20312E312E3915
:1004600020284769746875622920534F55524345C7
:100470005F434F44455F55524C3A68747470733A09
:100480002F2F6769746875622E636F6D2F4D6172CF
:100490006C696E4669726D776172652F4D61726C21
:1004A000696E2050524F544F434F4C5F5645525344
:1004B000494F4E3A312E30204D414348494E455F19
:1004C000545950453A3344205072696E7465722015
:1004D00045585452554445525F434F554E543A3156
:1004E00020555549443A63656465326132662D345E
:1004F0003161322D343734382D396231322D633544
:10050000356336326633363766660A002F2F200091
:100510004D31343520533C696E6465783E206F75EB
:1005200074206F662072616E67652028302D312936
:100530000A00205400205200416363656C657261BB
:1005400074696F6E3A20500020466C6F773A200035
:10055000000136372603FFFFFF353C3D380EFFFF15
:10056000FF312E303E12FFFFFFFF28FF0C0809FF6E
:10057000FFFF1A1C18FFFF2A08440AFF43206F756B
:1005800074206F662072616E67650A00536572762B
:100590006F20003A200020536572766F2000507261
:1005A0006F6265205A204F66667365743A20004377
:1005B000290A0061626C656420286D696E2074658B
:1005C0006D702000436F6C6420657874727564658B
:1005D000732061726520004E6F2063617365206C2B
:1005E000696768740A004D65736820706F696E747E
:1005F0002063616E6E6F74206265207265736F6C2C
:100600007665640A004D34323120696E636F727210
:1006100065637420706172616D65746572207573B5
:100620006167650A00454550524F4D204F4B0A0007
:100630003F5A206F7574206F662072616E67652067
:10064000282D323020746F203230290A003A2000E1
:1006500050726F6265205A204F6666736574004160
:1006600063746976652045787472756465723A20A2
:1006700000496E76616C6964206578747275646592
:10068000720A004B494C4C45442E200053544F50A5
:100690005045442E20005072696E74657220737448
:1006A0006F707065642064756520746F2065727268
:1006B0006F72732E204669782074686520657272A7
:1006C0006F7220616E6420757365204D3939392051
:1006D000746F20726573746172742E202854656D76
:1006E00070657261747572652069732072657365D7
:1006F000742E2053657420697420616674657220BD
:1007000072657374617274696E67290A004E6F2096
:10071000436865636B73756D2077697468206C69D5
:100720006E65206E756D6265722C204C617374204D
:100730004C696E653A20004E6F20436865636B73A9
:10074000756D2077697468206C696E65206E756DB3
:100750006265722C204C617374204C696E653A207E
:1007600000636865636B73756D206D69736D61748B
:1007700063682C204C617374204C696E653A2000CC
:100780004C696E65204E756D626572206973206ECE
:100790006F74204C617374204C696E65204E756DCA
:1007A0006265722B312C204C617374204C696E652C
:1007B0003A20004D313130004D3331005344207226
:1007C000656164206572726F720A00446F6E652005
:1007D0007072696E74696E672066696C650A0020C4
:1007E000496E76616C6964206578747275646572AF
:1007F00020000000000000000000000000000000D9
:100800005C4300005C4300007A4353544F50504512
:10081000442E20005072696E7465722073746F707C
:100820007065642064756520746F206572726F72E4
:10083000732E2046697820746865206572726F7225
:1008400020616E6420757365204D39393920746FCD
:1008500020726573746172742E202854656D706502
:100860007261747572652069732072657365742E88
:100870002053657420697420616674657220726506
:100880007374617274696E67290A0053544F502063
:1008900063616C6C65642062656361757365206F6C
:1008A0006620424C546F756368206572726F7220C7
:1008B0002D20726573746172742077697468204D9D
:1008C0003939390A0042696C696E656172204C657C
:1008D00076656C696E6720477269643A0A005375E1
:1008E000626469766964656420776974682043414D
:1008F000544D554C4C20524F4D204C6576656C69DB
:100900006E6720477269643A0A0020746F6F206C2A
:100910006F6E6720657874727573696F6E20707280
:100920006576656E7465640A0020636F6C6420658B
:100930007874727573696F6E2070726576656E7407
:1009400065640A00454550524F4D206461746173DF
:10095000697A65206572726F722E0A00290A00207A
:1009600062797465733B206372632000536574740D
:10097000696E67732053746F726564202800290ABA
:10098000002062797465733B2063726320002073DA
:10099000746F7265642073657474696E6773207216
:1009A0006574726965766564202800202863616C2F
:1009B00063756C6174656429210A0020213D200063
:1009C000454550524F4D20435243206D69736D6130
:1009D000746368202D202873746F72656429200069
:1009E0002053697A653A2000496E6465783A2000A0
:1009F000204D61726C696E3D563535290A002845D7
:100A00004550524F4D3D00454550524F4D20766563
:100A10007273696F6E206D69736D61746368200015
:100A200048617264636F6465642044656661756CD7
:100A3000742053657474696E6773204C6F616465CC
:100A4000640A00F4010000F401000064000000E802
:100A500003000000007A4300007A430000A0400039
:100A600000C8410000A0420000A0420000C84300AE
:100A700000C24224F4D43050C38E20C2A240178258
:100A80008B7011127A910D816CD90AA861E108C7A7
:100A9000586607615143061E4B5D05C145A7041A00
:100AA000411104093D9803713931034036DB026579
:100AB000339102D4305402802E1D02632CEE017556
:100AC0002AC501B028A001102781018F2564012BC0
:100AD000244B01E0223401AC211F018D200D018047
:100AE0001FFC00841EED00971DDF00B81CD200E63D
:100AF0001BC600201BBC00641AB200B219A8000A71
:100B000019A0006A189900D117910040178B00B501
:100B100016840031167E00B31579003A157300C7AC
:100B2000146F0058146A00EE1366008813630025E2
:100B3000135E00C7125B006C12570015125400C1FF
:100B400011510070114F0021114B00D61049008D3A
:100B50001047004610440002104200C00F400080C1
:100B60000F3E00420F3C00060F3B00CB0E380093B7
:100B70000E37005C0E3500270E3400F30D3200C135
:100B80000D3100900D3000600D2E00320D2D00054E
:100B90000D2C00D90C2B00AE0C2900850C29005C13
:100BA0000C2700350C27000E0C2600E80B2400C48F
:100BB0000B2400A00B23007D0B23005A0B210039CE
:100BC0000B2100180B2000F80A1F00D90A1E00BBD9
:100BD0000A1E009D0A1D00800A1D00630A1C0047B2
:100BE0000A1B002C0A1B00110A1A00F7091A00DD63
:100BF000091900C4091900AB091900920917007BF3
:100C0000091800630917004C091600360916002060
:100C10000916000A091500F5081500E0081400CCB3
:100C2000081400B8081400A4081400900813007DEC
:100C30000812006B0813005808120046081200340E
:100C4000081100230811001208110001081100F01A
:100C5000071000E0071000D0071000C0071000B018
:100C6000070F00A107100091070E0083070F007403
:100C7000070F0065070E0057070E0049070E003BDF
:100C8000070D002E070E0020070D0013070D0006AC
:100C9000070D00F9060C00ED060D00E0060C00D46F
:100CA000060C00C8060C00BC060C00B0060C00A424
:100CB000060B0099060C008D060B0082060B0077D0
:100CC000060B006C060B0061060A0057060B004C71
:100CD000060A0042060A0038060A002E060A002408
:100CE000060A001A060A001006090007060A00FD97
:100CF000050900F4050900EB050900E2050900D922
:100D0000050900D0050900C7050900BE050900B5A1
:100D1000050800AD050800A50509009C050800941C
:100D20000508008C050800840508007C050800748F
:100D30000508006C050700650508005D05070056FD
:100D40000508004E05070047050700400508003864
:100D5000050700310507002A050700230507001CC9
:100D6000050600160507000F050700080506000226
:100D7000050700FB040600F5040700EE040600E882
:100D8000040600E2040700DB040600D5040600CFD9
:100D9000040600C9040600C3040600BD040600B72B
:100DA000040600B1040500AC040600A6040600A079
:100DB0000405009B04060095040500900406008AC3
:100DC00004050085040500800406007A040500750A
:100DD000040500700405006B04050066040500614D
:100DE0000405005C04050057040500520405004D8D
:100DF00004050048040500430405003E0404003ACD
:100E000004050035040500300404002C0405002707
:100E1000040400230405001E0404001A0404001640
:100E2000040500110404000D040400090405000475
:100E300004040000040400FC030400F8030400F4AC
:100E4000030400F0030400EC030400E8030400E4DE
:100E5000030400E0030400DC030400D8030400D40E
:100E6000030400D0030400CC030400C8030300C53E
:100E700003030024F404D9201BC40C5C0E9804C4A2
:100E8000095F0265077101F405F900FB04B300482E
:100E9000048700C10369005803550003034500BEE1
:100EA000023A008402310053022A0029022500047C
:100EB000022000E4011C00C8011900AF01170098CE
:100EC0000114008401130071011000610110005130
:100ED000010E0043010D0036010B002B010B002019
:100EE000010B00150109000C01090003010800FBBA
:100EF000000800F3000800EB000700E4000600DE35
:100F0000000600D8000600D2000600CC000500C78D
:100F1000000500C2000500BD000400B9000400B5D2
:100F2000000400B1000400AD000400A9000400A505
:100F3000000300A20003009F0004009B0003009830
:100F40000003009500020093000300900003008D51
:100F50000002008B0003008800020086000200846B
:100F6000000300810002007F0002007D0002007B80
:100F70000002007900020077000100760002007490
:100F800000020072000100710002006F0002006D9B
:100F90000001006C0002006A0001006900020067A5
:100FA00000010066000100650001006400020062AB
:100FB00000010061000100600001005F0002005DAF
:100FC0000001005C0001005B0001005A00010059B3
:100FD00000010058000100570001005600010055B3
:100FE00000010054000100530000005300010052B2
:100FF00000010051000100500001004F0001004EAF
:101000000000004E0001004D0001004C0001004BAB
:101010000000004B0001004A0001004900010048A7
:1010200000000048000100470001004600000046A3
:10103000000100450000004500010044000100439C
:101040000000004300010042000000420001004196
:1010500000000041000100400001003F0000003F8F
:101060000001003E0000003E0001003D0000003D88
:101070000001003C0000003C0000003C0001003B7F
:101080000000003B0001003A0000003A0001003976
:10109000000000390001003800000038000000386E
:1010A0000001003700000037000100360000003664
:1010B000000000360001003500000035000000355A
:1010C000000100340000003400000034000100334F
:1010D0000000003300000033000100320000003245
:1010E000000000320001003100000031000000313A
:1010F0000001003000000030000000300001002F2F
:101100000000002F0000002F0000002F0001002E23
:101110000000002E0000002E0001002D0000002D18
:101120000000002D0000002D0001002C0000002C0C
:101130000000002C0000002C0001002B0000002B00
:101140000000002B0000002B0001002A0000002AF4
:101150000000002A0000002A0001002900000029E8
:1011600000000029000000290000002900010028DB
:1011700000000028000000280000002800000028CF
:1011800000010027000000270000002700000027C2
:1011900000000027000100260000002600000026B5
:1011A00000000026000000260001002500000025A8
:1011B000000000250000002500000025000000259B
:1011C000000100240000002400000024000000248E
:1011D0000000002400010023000000230000002381
:1011E0000000002300000023000000230000002373
:1011F0000001002200000022000000220000002266
:101200000000002200000022000100210000002157
:10121000000000210000002100000021000000214A
:10122000000000210001002000000020000000203C
:10123000000000200000002000000020000000202E
:10124000000000200001001F0000001F0000001F20
:101250000000001F0000001F0000001F0000001F12
:101260000001001E0000001E0000001E0000001E05
:10127000000000043700001E290000511B00005828
:1012800010000010090000CC0400007802000041AA
:101290000100003A0A0020286D6D290020204D38F9
:1012A0003531205A005A2D50726F6265204F6666A4
:1012B0007365740020440020490020204D333031F4
:1012C0002050005049442073657474696E67733A06
:1012D0000A0020460020420020480020204D3134E2
:1012E000352053004D6174657269616C20686561D9
:1012F00074757020706172616D65746572733A0AFD
:1013000000205A00204A0020204732392057204927
:1013100000205A0020204D34323020530041757493
:101320006F20426564204C6576656C696E673A0A89
:1013300000205A0020590020204D3230362058001D
:10134000486F6D65206F66667365743A0A002045C4
:1013500000205A002059002058002054002053003B
:1013600020204D32303520510020453C6D61785FA2
:10137000655F6A65726B3E0020583C6D61785F78EE
:101380005F6A65726B3E20593C6D61785F795F6A78
:1013900065726B3E205A3C6D61785F7A5F6A657258
:1013A0006B3E00416476616E6365643A20513C6D2A
:1013B000696E5F7365676D656E745F74696D655F97
:1013C00075733E20533C6D696E5F6665656472613E
:1013D00074653E20543C6D696E5F74726176656C15
:1013E0005F66656564726174653E0020540020523A
:1013F0000020204D323034205000416363656C651D
:10140000726174696F6E2028756E6974732F733200
:10141000293A20503C7072696E745F616363656C39
:101420003E20523C726574726163745F61636365F0
:101430006C3E20543C74726176656C5F61636365D9
:101440006C3E0A00204500205A0020590020204D03
:101450003230312058004D6178696D756D204163DF
:1014600063656C65726174696F6E2028756E69744E
:10147000732F7332293A0A00204500205A00205960
:101480000020204D3230332058004D6178696D7551
:101490006D206665656472617465732028756E6978
:1014A00074732F73293A0A00204500205A002059EE
:1014B0000020204D3932205800537465707320701D
:1014C000657220756E69743A0A0020204D32303002
:1014D0002044300A0020204D323030204400204487
:1014E000697361626C65640A0046696C616D656E62
:1014F000742073657474696E67733A0020204D31EF
:1015000034392043203B20556E69747320696E2066
:1015100043656C736975730A0020204732312020BF
:1015200020203B00545249474745524544006F70C4
:10153000656E003A20007A5F6D696E00795F6D69B3
:101540006E00785F6D696E005265706F7274696EBF
:101550006720656E6473746F702073746174757343
:101560000A005072656865617420504C4120456ED8
:1015700064005072656865617420504C412042657A
:1015800064005072656865617420504C410050726F
:1015900065706172650050726568656174204142D2
:1015A0005320456E64005072656865617420414245
:1015B0005320426564005072656865617420414241
:1015C000530050726570617265004D343238004DC1
:1015D00038300053776974636820706F77657220C4
:1015E0006F6666004D383100526573657420424C59
:1015F000546F756368004D323830205030205331BD
:10160000363000424C546F7563682053656C662D0C
:1016100054657374004D32383020503020533132CD
:101620003000507265686561742041425300507209
:10163000656865617420504C4100436F6F6C646F46
:10164000776E0053776974636820706F77657220D6
:101650006F6E0044697361626C65207374657070AD
:10166000657273004D38340053657420686F6D6582
:10167000206F666673657473004661646520486513
:1016800069676874004661646520486569676874C5
:10169000004661646520486569676874004F666646
:1016A000004F6E2000426564204C6576656C696E63
:1016B00067004C6576656C20626564004732380AC5
:1016C000473239004175746F20686F6D650047328D
:1016D00038004D6F76652061786973004D61696EE1
:1016E000004D6F76652058004D6F76652059004D8E
:1016F0006F7665205A004578747275646572004D86
:101700006F766520302E316D6D004D6F766520311E
:101710006D6D004D6F76652031306D6D004D6F76CB
:10172000652061786973004578747275646572002C
:101730004D6F7665205A004D6F76652059004D6FCC
:10174000766520580000060900FE00000000000138
:10175000090008FE000005080806000040F0C888DF
:1017600088987810050808060000C0F888888888DE
:1017700088F80505050600012030F8302005080826
:101780000600002070F820202020E005090906004E
:10179000FF2070A8A8B8888870200509090600FFF6
:1017A000E080C0B0A8283028280509090600FFF805
:1017B000A88888888888A8F8050A0A0600FE2050AC
:1017C00050505088A8A8887003030306000340A067
:1017D0004025753A2530327500253032753A25306E
:1017E00032750025756420253032753A2530327502
:1017F00000202020202020005A00590020202020F6
:101800000058000920000000000000000000000057
:1018100000003FFFF000000000000000000000009A
:101820000038007000000000000000000000000010
:1018300030FC30000000000000000000000000202C
:10184000FC100000000000000000000000002078F4
:101850001000000000000000000000000020301018
:101860000000000000000000000000002C00D03F3D
:10187000C0000000000000002082002E31D07FE078
:10188000000000000000001041002F7BD07FE0002E
:101890000000000000001041002F7BD07FE000001E
:1018A00000000000002082002E31D03FC000000068
:1018B000000000004104002C00D03FC000000000E8
:1018C0000000008208002030107FE00000000000CF
:1018D00000008208002078107FE000000000000077
:1018E0000041040020FC107FE00000000000000028
:1018F00020820030FC301F8000000000000000004B
:1019000000003800700F0000000000000000FFFF22
:10191000C03FFFF0060000000000000000FFFFC015
:101920000000000000000000000000000000003F78
:10193000FFF0000000000000000000000000380080
:101940007000000000000000000000000031863040
:1019500000000000000000000000000023871000CD
:101960000000000000000000000000278790000039
:10197000000000000000000000002F87D0000000E1
:101980000000000000000000002F03D03FC0000056
:1019900000000000002082002030107FE0000000E6
:1019A000000000001041002078107FE000000000DF
:1019B0000000001041002078107FE00000000000CF
:1019C00000002082002030103FC000000000000016
:1019D000004104002F03D03FC000000000000000C1
:1019E0008208002F87D07FE0000000000000008206
:1019F00008002787907FE0000000000000004104FD
:101A0000002387107FE0000000000000002082001B
:101A10003186301F80000000000000000000003808
:101A200000700F0000000000000000FFFFC03FFF3B
:101A3000F0060000000000000000FFFFC0000000F2
:101A40004578747275646572004D6F7665205A0032
:101A50004D6F76652059004D6F76652058005072A5
:101A6000657061726500496E697469616C697A6557
:101A700020454550524F4D00436F6E74726F6C009D
:101A8000526573746F7265206661696C7361666517
:101A9000004C6F61642073657474696E67730049EC
:101AA0006E697469616C697A6520454550524F4D85
:101AB0000053746F72652073657474696E67730088
:101AC000424C546F7563680046696C616D656E7455
:101AD000004D6F74696F6E0054656D70657261744E
:101AE000757265004D61696E00507265686561745C
:101AF0002041425320636F6E6600507265686561D5
:101B00007420504C4120636F6E66005049442D4450
:101B1000005049442D44005049442D490050494447
:101B20002D49005049442D50005049442D5000206B
:101B30000820466163740020082046616374002019
:101B400008204D6178002008204D61780020082091
:101B50004D6178002008204D696E002008204D69F5
:101B60006E002008204D696E004F6666004F6E20A3
:101B7000004175746F74656D700046616E207370FE
:101B80006565640046616E2073706565640046613A
:101B90006E20737065656400426564004265640090
:101BA000426564004E6F7A7A6C65004E6F7A7A6C8B
:101BB00065004E6F7A7A6C6500436F6E74726F6C5D
:101BC0000053746F72652073657474696E67730077
:101BD0004265640042656400426564004E6F7A7A33
:101BE0006C65004E6F7A7A6C65004E6F7A7A6C6520
:101BF0000046616E2073706565640046616E2073F7
:101C0000706565640046616E20737065656400549C
:101C1000656D706572617475726500565472617697
:101C2000206D696E005654726176206D696E0056A3
:101C300054726176206D696E00566D696E00566D46
:101C4000696E00566D696E00566D617820450056CC
:101C50006D6178204500566D6178204500566D61B4
:101C600078205A00566D6178205A00566D617820B0
:101C70005A00566D6178205900566D6178205900E0
:101C8000566D6178205900566D6178205800566D68
:101C90006178205800566D61782058004D6F746946
:101CA0006F6E00416D6178204500416D617820457F
:101CB00000416D6178205A00416D6178205A0041E1
:101CC0006D6178205900416D6178205900416D6146
:101CD00078205800416D6178205800412D74726160
:101CE00076656C00412D74726176656C00412D72D1
:101CF00065747261637400412D72657472616374FE
:101D000000416363656C00416363656C004D6F74F3
:101D1000696F6E0056652D6A65726B0056652D6A97
:101D200065726B0056652D6A65726B00567A2D6A76
:101D300065726B00567A2D6A65726B0056792D6A52
:101D400065726B0056792D6A65726B0056792D6A43
:101D500065726B0056782D6A65726B0056782D6A35
:101D600065726B0056782D6A65726B004D6F7469F1
:101D70006F6E004573746570732F6D6D00457374DD
:101D80006570732F6D6D005A73746570732F6D6D70
:101D9000005A73746570732F6D6D0059737465709C
:101DA000732F6D6D005973746570732F6D6D0058CE
:101DB00073746570732F6D6D005873746570732F35
:101DC0006D6D004D6F74696F6E0000060900FE07AF
:101DD00001920321207FFF07FF07FF00000006009C
:101DE00000010707060200808080808000800302D7
:101DF00002060105A0A00507070600005050F85094
:101E0000F850500507070600002078A07028F02041
:101E1000050707060000C0C81020409818050707EE
:101E20000600006090A040A8906802030306010429
:101E3000C0408003070706010020408080804020CA
:101E4000030707060100804020202040800505058B
:101E500006000120A870A820050505060001202025
:101E6000F820200203030602FFC04080050101069E
:101E70000003F8020202060200C0C00505050600C4
:101E80000108102040800507070600007088888838
:101E900088887003070706010040C040404040E0CA
:101EA000050707060000708808708080F80507079E
:101EB000060000F81020100808F0050707060000CB
:101EC00010305090F81010050707060000F880F059
:101ED00008088870050707060000708080F0888871
:101EE00070050707060000F80810202020200507CD
:101EF000070600007088887088887005070706004C
:101F00000070888878080870020505060200C0C0C5
:101F100000C0C00206060602FFC0C000C040800428
:101F2000070706000010204080402010050303062C
:101F30000002F800F8040707060100804020102086
:101F40004080050707060000708808102000200563
:101F5000070706000070880868A8A870050707062C
:101F60000000708888F8888888050707060000F058
:101F70008888F08888F00507070600007088808050
:101F8000808870050707060000F08888888888F038
:101F9000050707060000F88080F08080F805070735
:101FA000060000F88080F0808080050707060000AA
:101FB000708880B8888870050707060000888888C0
:101FC000F88888880107070602008080808080806A
:101FD00080050707060000381010101090600507F4
:101FE000070600008890A0C0A0908805070706009B
:101FF00000808080808080F805070706000088D870
:10200000A8888888880507070600008888C8A898D7
:10201000888805070706000070888888888870050A
:102020000707060000F08888F08080800507070613
:10203000000070888888A89068050707060000F0EF
:102040008888F0A0908805070706000078808070D7
:102050000808F0050707060000F8202020202020AF
:1020600005070706000088888888888870050707A4
:102070000600008888888888502005070706000029
:102080008888888888A85005070706000088885037
:10209000205088880507070600008888885020207F
:1020A00020050707060000F80810204080F8030705
:1020B00007060100E08080808080E00505050600BD
:1020C000018040201008030707060100E0202020BF
:1020D0002020E005030306000420508805010106C6
:1020E0000000F80202020602058040050505060010
:1020F0000070087888780507070600008080B0C85F
:102100008888F00505050600007080808870050746
:102110000706000008086898888878050505060005
:10212000007088F880700507070600003048E0401E
:102130004040400506060600FF7088887808700554
:1021400007070600008080B0C88888880107070656
:102150000200800080808080800308080601FF2044
:102160000020202020A04004070706000080809067
:10217000A0C0A090030707060100C04040404040B7
:10218000E0050505060000D0A8A8A8A805050506D5
:102190000000B0C88888880505050600007088889A
:1021A00088700506060600FFF08888F08080050626
:1021B000060600FF788888780808050505060000EF
:1021C000B0C880808005050506000070807008F0AA
:1021D0000407070600004040E04040403005050588
:1021E000060000888888986805050506000088882C
:1021F0008850200505050600008888A8A850050518
:102200000506000088502050880506060600FF8855
:102210008888780870050505060000F8102040F849
:1022200003070706010020404080404020010707C7
:1022300006020080808080808080030707060100FE
:102240008040402040408005020206000268900065
:102250000000060000FFE0FFD11000FFFEFFD0FFEE
:10226000E0FFC1FFD1E240A0C8A6A22FF800238161
:1022700027AC00AFFF64A5FF64FF64A4FFD0FFFE9E
:10228000436172642072656D6F76656400436172AC
:102290006420696E73657274656400000021002417
:1022A0000027002A002D0030003300010100000447
:1022B0000107010A0100002200250028002B002E42
:1022C000003100340002010000050108010B01008B
:1022D0000020002300260029002C002F00320000DF
:1022E00001000003010601090105050505070508B0
:1022F000080808020202020A0A0808040404040189
:1023000001010101010101030303030303030304AA
:102310000707070C0C0C0C0C0C0C0C02020202063A
:10232000060606060606060B0B0B0B0B0B0B0B012A
:1023300002102020080810204010204080020102D6
:10234000010804020101020408102040808040209E
:1023500010080402018004020180402010080402D9
:102360000108040201010204081020408001020457
:10237000081020408000000A0B02090C0D0E08070F
:102380000304010000000000000000000000000045
:10239000000000000000000000000000000000003D
:1023A00000121110000000000000000000000000FA
:1023B00000000000000000000000004D3234004D1D
:1023C000323320257300556E6B6E6F776E20636F0E
:1023D0006D6D616E643A20220050726F62696E67A3
:1023E000206661696C65640A0050726F62696E678D
:1023F000206661696C656400205A3A200020593AD1
:10240000200042656420583A2000486F6D696E676D
:10241000206661696C656400202844525952554E0B
:102420002900473239204175746F20426564204C81
:102430006576656C696E67003F20284C2C522C46EF
:102440002C4229206F7574206F6620626F756E6450
:10245000732E0A003F2856296572626F7365206CDF
:102460006576656C20697320696D706C6175736940
:10247000626C652028302D34292E0A0042616420C8
:102480005A2076616C75650A004E6F2062696C692E
:102490006E65617220677269640A0046696C652026
:1024A00064656C657465643A0044656C6574696F55
:1024B0006E206661696C65642C2046696C653A2003
:1024C0000050726F7465637465642050696E0A0011
:1024D00020573A004520436F6F6C696E672E2E2E91
:1024E00000452048656174696E672E2E2E002057C6
:1024F0003A0042656420636F6F6C696E672E2E2E02
:10250000004265642068656174696E672E2E2E0036
:10251000205A3A0020593A0020436F756E742058B3
:102520003A0020453A00205A3A0020593A00583AD9
:10253000003A004361703A005741524E494E4721DC
:10254000204C6F77205A204A65726B206D6179208C
:102550006C65616420746F20756E77616E7465645C
:10256000207061757365732E0A00205A002059008F
:10257000580020204D61783A2000205A0020590050
:10258000580020204D696E3A20004F6E20004F66A3
:102590006600536F667420656E6473746F70733A6F
:1025A000200020643A0020693A0020703A00496E09
:1025B00076616C69642065787472756465720A006E
:1025C00023646566696E652044454641554C545FF9
:1025D0004B64200023646566696E6520444546416E
:1025E000554C545F4B69200023646566696E652015
:1025F00044454641554C545F4B702000504944209F
:102600004175746F74756E652066696E697368656F
:1026100064212050757420746865206C6173742087
:102620004B702C204B6920616E64204B6420636FDB
:102630006E7374616E74732066726F6D2062656C68
:102640006F7720696E746F20436F6E66696775726D
:102650006174696F6E2E680A005049442041757498
:102660006F74756E65206661696C6564212074699C
:102670006D656F75740A00453120544845524D41CF
:102680004C2052554E4157415900546865726D6156
:102690006C2052756E617761790045312048656123
:1026A00074696E67206661696C6564004865617471
:1026B000696E67206661696C656400504944204119
:1026C00075746F74756E65206661696C6564212030
:1026D00054656D706572617475726520746F6F20DA
:1026E000686967680A00204B643A2000204B693A09
:1026F0002000204B703A20000A20436C61737369FC
:102700006320504944200A002054753A2000204B91
:10271000753A2000206D61783A2000206D696E3A8C
:10272000200020643A200020626961733A20005042
:102730004944204175746F74756E65206661696CDB
:1027400065642120426164206578747275646572E5
:10275000206E756D6265720A00504944204175749F
:102760006F74756E652073746172740A004F6666CB
:102770000A00466164652048656967687420004204
:102780006564204C6576656C696E672000466169FA
:102790006C656420746F20656E61626C65204265B3
:1027A00064204C6576656C696E670A004F666673D7
:1027B000657473206170706C696564004572723A6B
:1027C00020546F6F206661722100546F6F20666124
:1027D000722066726F6D207265666572656E6365E4
:1027E00020706F696E740A006265640A002C2073A1
:1027F000797374656D2073746F70706564212048FF
:1028000065617465725F49443A20004265642068DE
:10281000656174696E67206661696C65640048650E
:102820006174696E67206661696C6564004531207A
:1028300048656174696E67206661696C656400480B
:10284000656174696E67206661696C65640070011A
:102850002C0190012701B0012201C0011D01F001EE
:1028600018011002130130020E01600209019002EA
:102870000401C002FF000003FA004003F5008003DA
:10288000F000D003EB002004E6007004E100E00457
:10289000DC004005D700C005D2004006CD00D006C0
:1028A000C8008007C3003008BE00F008B900C009A6
:1028B000B400B00AAF00B00BAA00D00CA500000E07
:1028C000A000500F9B00C010960050129100001401
:1028D0008C00C0158700B0178200B0197D00D01B96
:1028E0007800001E730040206E0090226900F024E2
:1028F000640040275F0090295A00E02B5500102EFD
:10290000500020304B0010324600E033410090353B
:102910003C001037370070383200A0392D00B03A33
:102920002800A03B2300603C1E00103D1900903D94
:102930001400103E0F00703E0A00C03E0500003F2C
:102940000000403FFBFF803FF6FFC03FF1FF4531F5
:1029500020544845524D414C2052554E4157415903
:102960000042454420544845524D414C2052554E5A
:102970004157415900546865726D616C2052756E03
:1029800061776179004531204572723A204D415896
:1029900054454D50004572723A204D415854454DB2
:1029A0005020424544004D415854454D50207472CA
:1029B00069676765726564004531204572723A2027
:1029C0004D494E54454D50004572723A204D494E86
:1029D00054454D5020424544004D494E54454D50BC
:1029E00020747269676765726564004D38342058D9
:1029F0002059205A204500202F002042403A002034
:102A0000403A001FFFFFFFFFFFFF600000000001D2
:102A1000FF400000000000FF8000000000007F83F6
:102A2000CF00000C303F87FF80000C301F8679807C
:102A3000000C000F8C30C7838C30E78C30CFC7CCB4
:102A400031F38C30DCECEC33B98C30D86C6C33194E
:102A50008C30D06C0C33198C30D86C0C33198C3012
:102A6000DC6C0E3B198C30CF7C079F198C30C77CF7
:102A7000038F194000000000000260000000000009
:102A8000061FFFFFFFFFFFF82020506C616E6E6590
:102A90007242756666657242797465733A200020E9
:102AA00046726565204D656D6F72793A2000436FFF
:102AB0006D70696C65643A204D6179203235203241
:102AC0003031390A00207C20417574686F723A20D9
:102AD00020547265766F7220436F636B61796E6507
:102AE0000A00323031382D30382D303100204C6121
:102AF000737420557064617465643A2000312E311E
:102B00002E390A004D61726C696E0020536F667435
:102B1000776172652052657365740A00205761748D
:102B20006368646F672052657365740A002042729F
:102B30006F776E206F75742052657365740A00207C
:102B400045787465726E616C2052657365740A0015
:102B5000506F77657255700A0073746172740A0061
:102B60006175746F25692E67006572726F722077C8
:102B7000726974696E6720746F2066696C650A00FB
:102B8000456E6473746F7073202563202563202560
:102B90006320256300205A3A0020593A0020583A11
:102BA00000656E6473746F7073206869743A2000F6
:102BB000446F6E6520736176696E672066696C6527
:102BC0002E0A004D32390020746F6F206C6F6E67D3
:102BD00020657874727573696F6E207072657665A2
:102BE0006E7465640A0020636F6C6420657874728B
:102BF0007573696F6E2070726576656E7465640AB0
:102C000000627573793A2070617573656420666F30
:102C10007220696E7075740A00627573793A20705B
:102C2000617573656420666F7220757365720A0042
:102C3000627573793A2070726F63657373696E673A
:102C40000A004B494C4C45442E20004B494C4C202B
:102C5000636175736564206279204B494C4C206236
:102C60007574746F6E2F70696E0A004B494C4C4539
:102C7000442E20004B494C4C2063617573656420E1
:102C8000627920746F6F206D75636820696E61636F
:102C9000746976652074696D65202D206375727284
:102CA000656E7420636F6D6D616E643A2000506CC8
:102CB00065617365207265736574005052494E54A6
:102CC00045522048414C544544005072696E746529
:102CD000722068616C7465642E206B696C6C2829A5
:102CE0002063616C6C6564210A00656E71756575A1
:102CF00065696E67202200000000000000000000EF
:102D000000000000004842000048420000804000EF
:102D10000000005761726E696E673A20486F6D69F6
:102D20006E672042756D702044697669736F7220FA
:102D30003C20310A000202040000A0400000A04034
:102D40000000004000005C4300005C4300007A4348
:102D5000FFFFFF7C3C3E5E2B3D3F2F5B5D3B2C2A03
:102D6000225C0053746570732F6D6D004A65726B41
:102D700000416363656C65726174696F6E005665CE
:102D80006C6F636974790050726F6265205A204FCE
:102D9000666673657400436F6E74726F6C0046698B
:102DA0006C2E204469612E0046696C2E20446961B6
:102DB0002E004F6666004F6E20004520696E206D24
:102DC0006D3300436F6E74726F6C0043616E6E6F93
:102DD0007420656E746572207375626469723A203E
:102DE00000022E2E004D61696E004D617820546501
:102DF0006D703A20313530004D696E2054656D702C
:102E00003A203500544265643A4550434F532031CF
:102E100030304B004D61782054656D703A20323768
:102E200035004D696E2054656D703A203500543080
:102E30003A204550434F53203130304B00505355CA
:102E40003A204154580050726F746F636F6C3A208F
:102E5000312E3000426175643A20313135323030E4
:102E60000052414D505320312E340042696C696E3E
:102E7000656172204C6576656C696E670045787493
:102E80007275646572733A203100687474703A2FF9
:102E90002F6D61726C696E66772E6F7267003344B6
:102EA000205072696E74657200323031382D3038BE
:102EB0002D303100312E312E39004D61726C696E2A
:102EC00000546865726D6973746F727300426F614C
:102ED000726420496E666F005072696E746572206C
:102EE000496E666F004D61696E00486F6D65202503
:102EF0007325732573206669727374002066697286
:102F000073740A005A0059005800486F6D6520001C
:102F100053442063617264206F6B0A006F70656EAA
:102F2000526F6F74206661696C65640A00766F6C1D
:102F3000756D652E696E6974206661696C65640AD9
:102F400000534420696E6974206661696C0A0057F9
:102F5000726974696E6720746F2066696C653A20C7
:102F6000006F70656E206661696C65642C2046692F
:102F70006C653A20006F70656E206661696C6564EF
:102F80002C2046696C653A200046696C65207365A3
:102F90006C65637465640A002053697A653A2000A1
:102FA00046696C65206F70656E65643A2000206626
:102FB000696C653A2000646F696E670066726573BC
:102FC00068004E6F772000454E4420535542524FC3
:102FD0005554494E450A002220706F73002220701C
:102FE0006172656E743A2200535542524F555449EE
:102FF0004E452043414C4C207461726765743A22FF
:10300000004B494C4C45442E2000747279696E6720
:1030100020746F2063616C6C207375622D67636F21
:1030200064652066696C6573207769746820746FC5
:103030006F206D616E79206C6576656C732E204D06
:103040004158206C6576656C2069733A0045727250
:103050006F723A006F70656E206661696C65642CF2
:103060002046696C653A20003344205072696E74C2
:1030700065722052656164792E005072696E7469C0
:103080006E672E2E2E005072696E742070617573FB
:1030900065640053746F7720424C546F7563680009
:1030A0004D32383020503020533930004465706C38
:1030B0006F7920424C546F756368004D3238302070
:1030C00050302053313000424C546F7563682053A8
:1030D000656C662D54657374004D32383020503065
:1030E000205331323000526573657420424C546F66
:1030F000756368004D3238302050302053313630FF
:10310000004D61696E005072696E742061626F7269
:10311000746564004E6F20534420636172640050F4
:1031200072696E742066726F6D2053440053746F21
:1031300070207072696E7400526573756D652070D1
:1031400072696E740041626F7574205072696E749A
:103150006572005061757365207072696E7400430A
:103160006F6E74726F6C005072657061726500549E
:10317000756E6500496E666F2073637265656E00DB
:103180000E000E000E000E000E000E000E000E00CF
:103190007FC03F801F000E00040004000E001F00CF
:1031A0003F807FC00E000E000E000E000E000E00CD
:1031B0000E000E0003F8000FFE001E0F003807007F
:1031C000380380700380700FE07007C07003807058
:1031D00001007000003800003807001E0F000FFECD
:1031E0000003F80000FE0003FF800783C00E01C04B
:1031F0000E00E01C00E07F00E03E00E01C00E00864
:1032000000E00000E00001C00E01C00F078007FFD2
:103210000001FC00FFFFFF7F80FFC0FFC0FFC07FF9
:10322000807F80FFC0FFC0FFC03F001E000C005029
:10323000726F6265205A204F666673657400507223
:103240006F6265205A204F666673657400466C6F26
:103250007700466C6F7700466C6F770046616E2092
:1032600073706565640046616E2073706565640007
:1032700046616E2073706565640042656400426556
:103280006400426564004E6F7A7A6C65004E6F7A16
:103290007A6C65004E6F7A7A6C65004661646520D1
:1032A00048656967687400466164652048656967B8
:1032B00068740046616465204865696768740053F6
:1032C000706565640053706565640053706565647E
:1032D000004D61696E0043616E6E6F74206F7065A2
:1032E0006E2073756264697220006563686F3A00CE
:1032F0004572726F722077726974696E6720746F9D
:1033000020454550524F4D210A00526573656E6449
:103310003A20006F6B00C300C50011241FBECFEF21
:10332000D1E2DEBFCDBF00E00CBF13E0A0E0B2E011
:10333000E0E5FEE102E00BBF02C007900D92A83766
:10334000B107D9F727E1A8E7B3E001C01D92A8377C
:10335000B207E1F719E1CCE8D9E100E006C0219716
:103360000109802FFE010F948C0ECB38D10780E02D
:103370000807A9F70E94B1FC0D94170F0C940000E8
:103380002F923F924F925F926F927F928F929F9275
:10339000AF92BF92CF92DF92EF92FF920F931F9363
:1033A000CF93DF93CDB7DEB7CB56D1090FB6F894E4
:1033B000DEBF0FBECDBF11E01093ED0C80911F1446
:1033C0008D3411F40C94BB22843511F40C947D2FB0
:1033D000873411F00C94C82F20901D1430901E14C7
:1033E0002CE12216310409F42DC69CF444E0241685
:1033F000310444F452E025163104C4F537FE2FC0E1
:103400000C94B72284E02816310409F4DDC50C942D
:10341000B7229AE22916310409F404C764F4BDE125
:103420002B16310409F425C6EEE12E16310409F4F9
:1034300024C60C94B722FBE52F16310409F4CAC741
:103440002CE52216310409F4C9C73AE523163104E4
:1034500011F00C94B72210927C030C94CA2F809127
:10346000340281110C94CF2F0C94CA2F8091340216
:10347000882311F40C94CA2F0E9446AB82E50E9467
:103480009239882309F44CC10E9416394B015C0122
:1034900020E030E0A9010F943807882309F470C1B7
:1034A0008091B30A9091B40AA091B50AB091B60A7E
:1034B00088AF99AFAAAFBBAF2091B70A3091B80AD5
:1034C0004091B90A5091BA0A2CAF3DAF4EAF5FAFF1
:1034D0008091070D9091080DA091090DB0910A0DF2
:1034E0002C968CAF9DAFAEAFBFAF2C9720910B0D3C
:1034F00030910C0D40910D0D50910E0D28962CAF72
:103500003DAF4EAF5FAF28979C01AD0168AD79AD7F
:103510008AAD9BAD0F94380781110FC028962CAD52
:103520003DAD4EAD5FAD28976CAD7DAD8EAD9FAD21
:103530000F943807882309F423C111E032E02316E1
:10354000310409F010E020E030E0A901C501B40128
:103550000F943807881F8827881F181759F080E0B4
:1035600090E0A0E8BFEB64968CAF9DAFAEAFBFAF6D
:1035700064970AC020E030E040E85FE364962CAF37
:103580003DAF4EAF5FAF649728AD39AD4AAD5BAD8F
:103590002C966CAD7DAD8EAD9FAD2C970F94830BAB
:1035A00060966CAF7DAF8EAF9FAF60972CAD3DAD99
:1035B0004EAD5FAD28966CAD7DAD8EAD9FAD2897BD
:1035C0000F94830B6B017C0160962CAD3DAD4EAD2D
:1035D0005FAD6097CA01B9010F949D072B013C01B3
:1035E000A7019601C701B6010F949D079B01AC018D
:1035F000C301B2010F94840B0F94EF0D24966CAFAE
:103600007DAF8EAF9FAF249720E030E040E05FE3D6
:103610000F949D072B013C01A5019401C501B40144
:103620000F949D074B015C01A3019201C301B201FC
:103630000F949D079B01AC01C501B4010F94830B4E
:103640000F94EF0D64962CAD3DAD4EAD5FAD64971C
:103650000F949D074B015C01C701B6019058249659
:103660002CAD3DAD4EAD5FAD24970F94600CA50120
:1036700094010F949D076B017C012C962CAD3DAD00
:103680004EAD5FAD2C9768AD79AD8AAD9BAD0F9413
:10369000840B20E030E040E05FE30F949D079B0146
:1036A000AC01C701B6010F94840B28AD39AD4AAD0A
:1036B0005BAD0F94830B6B017C0128962CAD3DAD67
:1036C0004EAD5FAD28976CAD7DAD8EAD9FAD0F94C7
:1036D000840B20E030E040E05FE30F949D072B0176
:1036E0003C0124962CAD3DAD4EAD5FAD2497609668
:1036F0006CAD7DAD8EAD9FAD60970F94600CA50154
:1037000094010F949D079B01AC01C301B2010F947A
:10371000840B2CAD3DAD4EAD5FAD0F94830B14C04B
:1037200089E40E949239882329F00E9416396B019E
:103730007C0103C0C12CD12C76018AE40E9492390D
:10374000882309F10E9416392C966CAF7DAF8EAF9D
:103750009FAF2C9720E030E0A901C701B6010F947C
:10376000380781111FC020E030E0A9012C966CAD14
:103770007DAD8EAD9FAD2C970F943807811112C08F
:10378000EDE4F0E30DC420E030E0A901C701B6018B
:103790000F9438078823A1F32C961CAE1DAE1EAEE5
:1037A0001FAE2C97D701C601B05888AF99AFAAAF0A
:1037B000BBAF2C962CAD3DAD4EAD5FAD2C975058A8
:1037C0002CAF3DAF4EAF5FAF9C01AD01BC01CD0151
:1037D0000F949D074B015C012CAD3DAD4EAD5FAD2F
:1037E000CA01B9010F949D079B01AC01C501B40149
:1037F0000F94840B0F94EF0DA0966CAF7DAF8EAF3E
:103800009FAFA0978091B30A9091B40AA091B50A96
:10381000B091B60A28968CAF9DAFAEAFBFAF2897D8
:10382000A7019601BC01CD010F94840B64966CAF87
:103830007DAF8EAF9FAF64972091B70A3091B80AE1
:103840004091B90A5091BA0A60962CAF3DAF4EAF85
:103850005FAF60972C962CAD3DAD4EAD5FAD2C9714
:1038600060966CAD7DAD8EAD9FAD60970F94840B6F
:10387000A4966CAF7DAF8EAF9FAFA4978091070DDC
:103880009091080DA091090DB0910A0D68968CAF2A
:103890009DAFAEAFBFAF689764962CAD3DAD4EAD5A
:1038A0005FAD6497BC01CD010F94830B6B017C016C
:1038B00020910B0D30910C0D40910D0D50910E0D7E
:1038C0006C962CAF3DAF4EAF5FAF6C97A4962CAD0E
:1038D0003DAD4EAD5FADA4976C966CAD7DAD8EAD3C
:1038E0009FAD6C970F94830B4B015C018091BB0AD9
:1038F0009091BC0AA091BD0AB091BE0AA8968CAF67
:103900009DAFAEAFBFAFA8979C01AD0160910F0D09
:103910007091100D8091110D9091120D0F94830BE9
:1039200024966CAF7DAF8EAF9FAF2497A701960111
:1039300068AD79AD8AAD9BAD0F949D072B013C011D
:10394000A50194016CAD7DAD8EAD9FAD0F949D072B
:103950009B01AC01C301B2010F94840B2B013C010C
:10396000A501940168AD79AD8AAD9BAD0F949D071B
:103970004B015C01A70196016CAD7DAD8EAD9FAD95
:103980000F949D079B01AC01C501B4010F94830BFB
:10399000A30192010F94F70B6B017C0120E030E052
:1039A000A9010F94380787FF0AC02BED3FE049ECCF
:1039B00050E4C701B6010F94840B6B017C0192E0C7
:1039C0002916310451F42BED3FE049EC50E4C701D6
:1039D000B6010F94830B6B017C0120E030E0A9015C
:1039E000C701B6010F943807811128C068962CAD25
:1039F0003DAD4EAD5FAD689728966CAD7DAD8EAD9B
:103A00009FAD28970F943807811118C06C962CAD84
:103A10003DAD4EAD5FAD6C9760966CAD7DAD8EAD3E
:103A20009FAD60970F943807811108C00BEDC02E31
:103A30000FE0D02E09ECE02E00E4F02EA701960155
:103A4000A0966CAD7DAD8EAD9FADA0970F949D07F8
:103A50004B015C0120E030E0A90124966CAD7DAD06
:103A60008EAD9FAD24970F9438078823E9F0A50108
:103A70009401C501B4010F949D074B015C0124968C
:103A80002CAD3DAD4EAD5FAD2497CA01B9010F9489
:103A90009D079B01AC01C501B4010F94840B0F94E9
:103AA000EF0D4B015C010DC020E030E0A901C50124
:103AB000B4010F94AA0D87FF04C0B7FAB094B7F809
:103AC000B0942FE632E143E85AE3C501B4010F9404
:103AD000380787FF02C00C94CA2FC501B4010F94A8
:103AE000F90C0F94CD0C2E967FAF6EAF2E97DB01A5
:103AF000AB2B31F4E1E0F0E02E96FFAFEEAF2E9766
:103B00004090BF0A5090C00A6090C10A7090C20AEB
:103B10002E962EAD3FAD2E97B90180E090E00F9428
:103B20003C074B015C019B01AC01C701B6010F943E
:103B3000600C28966CAF7DAF8EAF9FAF2897A50124
:103B4000940124966CAD7DAD8EAD9FAD24970F94FE
:103B5000600CA0966CAF7DAF8EAF9FAFA097A30116
:103B600092016091130D7091140D8091150D90913B
:103B7000160D0F94830BA50194010F94600CAC9665
:103B80006CAF7DAF8EAF9FAFAC9728962CAD3DAD9F
:103B90004EAD5FAD2897CA01B9010F949D0720E093
:103BA00030E040E05FE30F949D079B01AC0160E0D3
:103BB00070E080E89FE30F94830B68966CAF7DAF55
:103BC0008EAF9FAF6897A8968CAD9DADAEADBFADE3
:103BD000A89789879A87AB87BC874D865E866F8654
:103BE000788A60914C0270914D02072E000C880B70
:103BF000990B0F943E072091300230913102409191
:103C00003202509133020F949D072AE037ED43E2D0
:103C10005CE30F949D076CAB7DAB8EAB9FAB0E94BA
:103C200097C59B01AC0128533F4F4F4F5F4F6C9698
:103C30002CAF3DAF4EAF5FAF6C9748AC59AC6AACA0
:103C40007BAC22242394312C39E121963FAF21977C
:103C50002E964EAD5FAD2E974215530509F44CC11B
:103C60000E9463C20E9497C5DC01CB016C962CAD0B
:103C70003DAD4EAD5FAD6C97821B930BA40BB50BA6
:103C8000B7FD10C00E9497C59B01AC0128533F4F60
:103C90004F4F5F4F6C962CAF3DAF4EAF5FAF6C9701
:103CA0000E9421C921963FAD2197315021963FAF07
:103CB0002197332309F445C02CAD3DAD4EAD5FAD2A
:103CC00068966CAD7DAD8EAD9FAD68970F949D07E6
:103CD0006B017C019201A30128966CAD7DAD8EAD88
:103CE0009FAD28970F949D07A70196010F94840B11
:103CF0007B018C019201A30168966CAD7DAD8EAD08
:103D00009FAD68970F949D074B015C012CAD3DADB5
:103D10004EAD5FAD28966CAD7DAD8EAD9FAD289755
:103D20000F949D079B01AC01C501B4010F94830B57
:103D30002B013C01C701D8018CAF9DAFAEAFBFAF27
:103D400055C0B10180E090E00F943C0728962CAD5F
:103D50003DAD4EAD5FAD28970F949D074B015C01C3
:103D60000F945D0C6B017C01C501B4010F94E50D4E
:103D70004B015C01A701960168AD79AD8AAD9BADA1
:103D80000F949D072B013C012C962CAD3DAD4EAD03
:103D90005FAD2C97C501B4010F949D07A30192015B
:103DA0000F94840B2B013C01A501940168AD79AD02
:103DB0008AAD9BAD0F949D074B015C012C962CADF9
:103DC0003DAD4EAD5FAD2C97C701B6010F949D0779
:103DD0009B01AC01C501B4010F94830B6CAF7DAFA7
:103DE0008EAF9FAF49E121964FAF21979201A3017A
:103DF00064966CAD7DAD8EAD9FAD64970F94840BD2
:103E000069837A838B839C832CAD3DAD4EAD5FADD2
:103E1000A4966CAD7DAD8EAD9FADA4970F94840B31
:103E20006D837E838F839887A0962CAD3DAD4EAD7C
:103E30005FADA09769857A858B859C850F94840BEF
:103E400069877A878B879C87AC962CAD3DAD4EAD4C
:103E50005FADAC976D857E858F8598890F94840BB7
:103E60006D877E878F87988B80911B02882321F036
:103E7000CE0101960E947EC7E090540A1CA61DA6A2
:103E80001EA61FA689819A81AB81BC8188A399A3B4
:103E9000AAA3BBA38D819E81AF81B8858CA39DA36E
:103EA000AEA3BFA389859A85AB85BC8588A799A752
:103EB000AAA7BBA7AE01485D5F4FBE016C5D7F4FF7
:103EC000CE0180960E94CB65CE018C966C018E014E
:103ED0000C5C1F4F9E01235F3F4FAE01485D5F4F5B
:103EE000BE016C5D7F4F0C970E94273F882321F015
:103EF0009FEF291A390AACCEE090540A18AA19AAE1
:103F00001AAA1BAA8091070D9091080DA091090D86
:103F1000B0910A0D88A399A3AAA3BBA380910B0D0E
:103F200090910C0DA0910D0DB0910E0D8CA39DA341
:103F3000AEA3BFA380910F0D9091100DA091110D14
:103F4000B091120D88A799A7AAA7BBA7AE01485D9B
:103F50005F4FBE016C5D7F4FCE0180960E94CB65A6
:103F6000DE01D0966D018E010C5C1F4F23E13DE018
:103F7000AE01485D5F4FBE016C5D7F4FCE01809604
:103F80000E94273F80E1E7E0FDE0A3EBBAE001906B
:103F90000D928A95E1F70C94CA2F0E94AE39F80170
:103FA00084918F010F5F1F4F8111F7CFEFEEF1E08A
:103FB00084918F010F5F1F4F882311F40C94CA2F37
:103FC0000E94AE39F801F4CF80E50E94923988232F
:103FD00029F00E94D6386B017C0103C0C12CD12C82
:103FE000760183E50E949239882361F00E94163998
:103FF00020E030E04AE754E40F949D070F94CD0C85
:104000006B017C010E94F34C80916B0F811105C004
:1040100060E085E092E00E94F99B0E9497C5C60E81
:10402000D71EE81EF91E0E9497C5DC01CB018C1932
:104030009D09AE09BF09B7FD02C00C94CA2F0E94AA
:1040400021C9F1CF8091A20A8770873011F00C94BA
:10405000D42F8FE40E949239882319F00E940739E7
:1040600003C08FE40E94493981110C94CA2F0C942B
:10407000D42F0E949BAC0C94CA2FC090B30AD0904E
:10408000B40AE090B50AF090B60A88E50E94923929
:10409000811109C020E030E048E252E4C701B601D6
:1040A0000F94830B02C00E94163968A379A38AA3D8
:1040B0009BA3C090B70AD090B80AE090B90AF090DC
:1040C000BA0A89E50E949239811109C020E030E0E6
:1040D00040EA50E4C701B6010F94830B02C00E946E
:1040E00016399B01AC0169837A838B839C8368A119
:1040F00079A18AA19BA10E941BC8882311F40C946A
:10410000CA2F80E00E9491370E94C53485E40E9446
:104110009239882321F00E940739182F04C085E4C2
:104120000E94493911E086E50E949239882321F0E6
:104130000E94E638262F01C021E0412FBE016F5FAB
:104140007F4FCE0180960E94DEA06B017C019B0117
:10415000AC010F94300E81115FC088A099A0AAA075
:10416000BBA020E030E0A901C501B4010F943807DD
:1041700087FF05C027E137EB41E558EB04C027E195
:1041800037EB41E558E3C501B4010F94840BAB0153
:10419000BC0185E392E00E94096389809A80AB802C
:1041A000BC8020E030E0A901C501B4010F943807BC
:1041B00087FF05C027E137EB41E558EB04C027E155
:1041C00037EB41E558E3C501B4010F94840BAB0113
:1041D000BC0180E392E00E94096320E030E0A90185
:1041E000C701B6010F94380787FF05C027E137EBF9
:1041F00041E558EB04C027E137EB41E558E3C7013F
:10420000B6010F94840BAB01BC018BE292E00E94DB
:1042100009638AE00E94AE390E94AC340E9461B802
:104220000C94CA2F80913402882311F40C94CA2F65
:1042300089E40E949239082F882321F00E94E638F1
:10424000E62E01C0E12C8AE40E949239182F8823BF
:1042500021F00E94E638F62E01C0F12C002319F05F
:10426000F3E0FE1528F0112389F023E02F1570F4F8
:10427000EDE3F2E084918F010F5F1F4F882311F46B
:104280000C94CA2F0E94AE39F801F4CF0E94A439D1
:104290000023F1F020917809309179094E2D4203E5
:1042A000B001439F700D11248091F7039091F803A2
:1042B000680F791F072E000C880B990B0F943E078F
:1042C0006093070D7093080D8093090D90930A0D6C
:1042D0001123F1F020917A0930917B095F2D52036F
:1042E000B001539F700D11248091F9039091FA034E
:1042F000680F791F072E000C880B990B0F943E074F
:1043000060930B0D70930C0D80930D0D90930E0D1B
:1043100080E50E9492398823E9F00E9407398823BA
:10432000A9F10023D9F020E030E048E252E46091A6
:10433000070D7091080D8091090D90910A0D0F9451
:10434000840B6093070D7093080D8093090D909373
:104350000A0D04C080E50E944939E1CF1123B1F074
:1043600020E030E040EA50E460910B0D70910C0DBC
:1043700080910D0D90910E0D0F94840B60930B0D99
:1043800070930C0D80930D0D90930E0D86E40E949A
:1043900092398823D9F00E9416396B017C0120E004
:1043A00030E0A9010F94AA0D181684F420E030E043
:1043B00040E752E4C701B6010F94600C60933002ED
:1043C0007093310280933202909333020E9418CC92
:1043D0000C94CA2F10937C030C94CA2FE6E62E2E61
:1043E000E2E03E2EFBEFEF2EFCE0FF2E83EB9AE0A7
:1043F00099AF88AFA3EACA2EAAE0DA2E00E010E057
:10440000D1018D911D010E949239882309F44BC07E
:104410000E9416392B013C01133049F0F60120812E
:104420003181428153810F94830B2B013C01A8AD54
:10443000B9AD2D913D914D915C91C301B2010F94A5
:10444000830B4B015C012DEB37E346E855EB0F94F2
:10445000AA0D87FD0AC02DEB37E346E855E3C501F9
:10446000B4010F9438071816F4F4133051F4409245
:10447000BF0A5092C00A6092C10A7092C20A01E05B
:1044800012C0A5019401F70160817181828193813D
:104490000F94840BD7016D937D938D939C93139709
:1044A000812F0E948F361F5FB4E0EB0EF11CE8AD48
:1044B000F9AD3496F9AFE8AFF4E0CF0ED11C14306B
:1044C00009F09ECF002309F44EC020E030E0A9019E
:1044D0006091BF0A7091C00A8091C10A9091C20A8E
:1044E0000F94840B20914F0A3091500A4091510A49
:1044F0005091520A0F949D070F94B50D6093E70FEA
:104500007093E80F8093E90F9093EA0F9091C50F95
:104510008091C60F981719F00E94954C24C00E94F4
:10452000F34C80916F00982F927081FF05C08091AD
:104530006F008D7F80936F004091E70F5091E80FDF
:104540006091E90F7091EA0F4093DE0A5093DF0A01
:104550006093E00A7093E10A992329F080916F003B
:10456000826080936F000E9461B80C94CA2F0E94F1
:1045700062A30C94CA2F80911D1490911E1485374C
:10458000910509F47FC70CF0C1C08C34910509F482
:10459000A9C40CF050C08931910509F4B3C21CF5CF
:1045A0008431910509F4BCC17CF48131910509F491
:1045B00031C22CF4029708F4B6C10C947A2F4297BA
:1045C00009F424C60C947A2F8631910509F473C23C
:1045D0000CF46DC28731910509F473C2489709F450
:1045E00086C20C947A2F8E31910509F441C384F46C
:1045F0008B31910509F49AC20CF48AC28C31910571
:1046000009F42CC34D9711F40C94CA2F0C947A2FF3
:104610008032910509F430C30CF47AC38A329105D3
:1046200009F42CC48B34910511F00C947A2F0E945C
:104630000BBF0C94CA2F8936910509F41CC584F56B
:104640008335910509F4DFC5DCF48035910509F463
:104650009BC54CF48D34910511F00C947A2F0E9477
:1046600040BF0C94CA2F8135910509F4B4C5823539
:10467000910511F00C947A2F10927B030C94CA2FA1
:104680008535910509F4C5C50CF4C0C58C35910577
:1046900009F4D8C58836910509F428C40C947A2FFA
:1046A0008E36910509F451C49CF48B36910509F4BA
:1046B0005BC50CF43DC58C36910509F4ACC48D3650
:1046C000910511F00C947A2F0E9453A90C94CA2FD3
:1046D0008137910509F4A5C46CF48F36910509F46E
:1046E00047C48037910511F00C947A2F82E393E050
:1046F0000E94BDC88237910509F42CC68337910505
:1047000011F00C947A2FE6E4F4E061C68C3221E0DB
:10471000920711F40C94942D0CF07FC0893C910504
:1047200009F4DCC77CF58C38910509F4E4C4ACF4D9
:104730008737910509F401C70CF4B3C68837910592
:1047400009F4FEC68937910511F00C947A2F109266
:10475000400B10923F0B0C94CA2F8B39910509F432
:10476000A5C434F48139910509F4F0C60C947A2F6C
:104770008E3B910509F4D9C4883C910509F45EC7C4
:104780000C947A2F833D910511F40C94352C34F55B
:104790008C3C910509F4D7C764F48B3C910511F06A
:1047A0000C947A2F06E6E02E02E0F02E07E01AE0E5
:1047B000BBC78D3C910511F40C94182C8E3C9105CF
:1047C00011F00C947A2FB6E6CB2EB2E0DB2E12E479
:1047D000E12E1BE0F12E10E00C94232C823E91057B
:1047E00011F40C94B42C64F48C3D910511F40C94E8
:1047F000382C8D3D910511F40C94452C0C947A2F96
:10480000883141E0940711F40C94DE2C82329140FF
:1048100011F40C94892D0C947A2F853AA1E09A0713
:1048200011F40C943A2EB4F58039E1E09E0711F4AE
:104830000C942D2EC4F48E3221E0920711F40C94C6
:10484000C02D14F40C94BD2D8F3241E0940711F467
:104850000C94142E8336914011F00C947A2FEDE4D1
:10486000F0E30C941A2E8239A1E09A0711F40C940B
:10487000352E14F40C94302E8A39E1E09E0709F4A9
:10488000CDC3843A914011F00C947A2F0E9430BA33
:104890000C94CA2F873F21E0920711F40C94D12E7B
:1048A000FCF4843F41E0940711F40C94CB2E4CF4BB
:1048B0008C3A914011F00C947A2F0E942BB90C94F1
:1048C000CA2F853FB1E09B0711F40C94CE2E863F92
:1048D000914011F00C947A2F0E943A4E0C94CA2FFA
:1048E0008B38F3E09F0711F40C94CA2F6CF4883FC7
:1048F00031E0930711F40C94DC2E8335934011F4CE
:104900000C94002F0C947A2F803A53E0950709F409
:10491000F2C1873E934011F40C94652F0C947A2FCA
:10492000E7E8F2E086C0A0901B14B0901C1480E56C
:104930000E949239882359F00E94D6386B017C017D
:1049400011E0672B682B692B31F410E004C010E0F4
:10495000C12CD12C760183E50E949239882311F471
:104960000C94BA300E94163920E030E04AE754E453
:104970000F949D070F94CD0C6B017C0111110BC09E
:10498000672B682B692B39F4A114B10421F0F501D0
:104990008081811102C010E001C011E00E94F34C3F
:1049A000112329F061E0C5010E94339C05C060E03D
:1049B0008CE592E00E94F99B83E08093ED0C81E00E
:1049C0008093660AC114D104E104F104B1F00E949D
:1049D00097C5C60ED71EE81EF91E0E9497C5DC01BA
:1049E000CB018C199D09AE09BF09B7FF0DC080919D
:1049F000660A81110C94BF3007C08091660A882333
:104A000019F00E9421C9F9CF0E94F6E61092660AB9
:104A10000C94CA2F60E08FE692E00E94F99B5F98A9
:104A20008A988091080181708093060112980C94F5
:104A3000CA2F84918F010F5F1F4F882321F00E949E
:104A4000AE39F801F6CF1092F8128BEA90E10E948D
:104A500074D28BE1EBEAF0E1DE01159601900D9244
:104A60008A95E1F78091A9109091AA109C838B837D
:104A70008CE193E09A83898340E050E0BE016F5F50
:104A80007F4F80E090E00E9415EECE0101960E94DB
:104A90009CC8E8E7F2E084918F010F5F1F4F8823E5
:104AA00011F40C94CA2F0E94AE39F801F4CF0E9481
:104AB00024DF0C94CA2F10927B1010927C100C945F
:104AC000CA2FE0911B14F0911C148081882329F0D7
:104AD000803209F410823196F8CF40E061E0809195
:104AE0001B1490911C140E94DEE20C94CA2F80913A
:104AF0007C10882319F081E080937B100E940BBF0B
:104B00000C94CA2F10927B100E942CBF0C94CA2FB9
:104B100080917C10882311F40C94CA2F83E50E94A5
:104B2000923981110C94C3300C94CA2F83E40E94F3
:104B30004939882309F450C0E5ECF2E084918F01F3
:104B40000F5F1F4F882321F00E94AE39F801F6CF86
:104B500080914612811103C0E8E9F2E012C0BE0163
:104B60006F5F7F4F83E492E10E943CD18E010F5F23
:104B70001F4FD8018D918D01882349F10E94AE39D4
:104B8000F8CF84918F010F5F1F4F882301F10E949E
:104B9000AE39F801F6CF6DE1C62E63E0D62EE12CDA
:104BA000F12C20E08091F10390E00E2C02C095954D
:104BB00087950A94E2F780FD0BC2BFEFEB1AFB0A60
:104BC000E2E0CE0ED11CF5E0EF16F10459F78AE0D1
:104BD0000E94AE390C94CA2F80917C10882339F042
:104BE00080917B10882319F0E2EAF2E003C0E4EB45
:104BF000F2E028C084918F010F5F1F4F882321F0BE
:104C00000E94AE39F801F6CF6091F4127091F5125E
:104C10008091F6129091F7124AE00E94063D8FE2D1
:104C20000E94AE396091F0127091F1128091F212EF
:104C30009091F3124AE00E94063D8AE00E94AE394C
:104C40000C94CA2F84918F010F5F1F4F882311F49A
:104C50000C94CA2F0E94AE39F801F4CF40E060E016
:104C600080911B1490911C140E94DEE20C94CA2FB8
:104C70000E940FB10C94CA2F80917B1081110E9469
:104C8000F34C80917C10882311F40C94CA2F80E59A
:104C90000E949239882319F00E94073903C080E5E9
:104CA0000E944939182F482F61E080911B14909180
:104CB0001C140E94DEE283E50E949239882381F071
:104CC0000E94E638AB01BC014093F4125093F512F8
:104CD0006093F6127093F71283E492E10E942DD054
:104CE00080917C10882319F081E080937B10111152
:104CF0000C94CA2F03CF80911B1490911C1421E0B7
:104D000020937A1040E060E00E94DEE20C94CA2F0B
:104D10000E94BDBE7B018C0120E831E541E050E0FE
:104D20000F94260BC9016DE671E00F94650E4B01DF
:104D30005C01C801B70120E13EE040E050E00F9483
:104D4000260BCA01B90128E130E040E050E00F94A1
:104D5000260B762E672EC62ED72E7CE3272E312CDF
:104D6000412C512CC801B701A20191010F94260BCF
:104D7000F62EE72ECA01B901A20191010F94260B6C
:104D8000CB018E010F5F1F4F8114910499F0EF92B8
:104D9000FF927F936F936F927F92BF92AF929F9299
:104DA0008F928CEF92E09F938F931F930F930F94AA
:104DB000D20613C0A114B104B1F0EF92FF927F9319
:104DC0006F936F927F92BF92AF928CEE92E09F931F
:104DD0008F931F930F930F94D2060FB6F894DEBFF4
:104DE0000FBECDBF30C0CD2879F0EF92FF927F93F8
:104DF0006F936F927F9280EE92E09F938F931F93B9
:104E00000F930F94D206E9CF892B69F0EF92FF92AE
:104E10007F936F9388ED92E09F938F931F930F93EF
:104E20000F94D206DACFEF92FF9284ED92E09F9337
:104E30008F931F930F930F94D2060F900F900F90A4
:104E40000F900F900F9060E0C8010E94339CEAEE33
:104E5000F2E384917F019FEFE91AF90A882321F098
:104E60000E94AE39F701F5CFB80180E193E00E94CE
:104E70003F638AE00E94AE390C94CA2F83E50E94FA
:104E80009239882311F40C94CA2F0E94F638E82E28
:104E900080E50E949239882339F00E94F638182F55
:104EA00087FF03C00C94CA2F1DE089E40E94923949
:104EB000882341F00E94073981110C947831E0E594
:104EC000F5E00BC089E40E944939F6CF3196A5E0A0
:104ED000ED37FA0711F40C94783184911813F6CF5A
:104EE0000C94D4300E942CBF0C94CA2F88E690E01A
:104EF0000E94713D81110C94CA2F8091F10383FFB0
:104F000002C00C94CA2F83E50E9492398823C9F00D
:104F10000E9416390F94C80C7093900A60938F0A00
:104F200080E00E94BFBD0E94163920E030E04AEACE
:104F300052E40F943807181624F00E9440BF0E94D4
:104F4000F6E60E945A630C94CA2F8EE40E949239AE
:104F5000882311F40C94CA2F0E94E6386093450F01
:104F60007093460F8093470F9093480F0C94CA2F6D
:104F700083E50E944939882359F083E50E949239DC
:104F8000882319F00E94F63801C080E08093F10375
:104F9000EAEEF2E384918F010F5F1F4F811103C08E
:104FA000EBE2F3E004C00E94AE39F801F3CF849144
:104FB0008F010F5F1F4F882321F00E94AE39F80147
:104FC000F6CF8091F1038111E6CDE7E2F3E018C05E
:104FD000BB24B394B20E222319F08CE20E94AE39A6
:104FE000F60185919491FC0184918F010F5F1F4F11
:104FF000882321F00E94AE39F801F6CF2B2DDDCDAC
:1050000084918F010F5F1F4F882309F4E0CD0E9428
:10501000AE39F801F5CF10923F02BCC70E94BDB176
:10502000B9C783E50E949239811103C0EAEEF2E329
:105030000BC00E94F6388D3318F480934002AAC743
:105040008CE380934002A6C784918F010F5F1F4FAE
:10505000882321F00E94AE39F801F6CF409140023A
:1050600050E060E070E08BE393E00E94EC628AE045
:105070000E94AE398FC789E690E00E94713D811190
:1050800011C0E2E4F3E084918F010F5F1F4F88238A
:1050900021F00E94AE39F801F6CF0E94BABC8AE036
:1050A0000E94AE391092ED0C0C948D3183E50E9474
:1050B0009239882309F46EC70E94F638182F8D3371
:1050C00008F01CE31093FA0C0E9497C56B017C0159
:1050D000212F30E0A8EEB3E00F94740BC60ED71E5C
:1050E000E81EF91EC092F60CD092F70CE092F80C74
:1050F000F092F90C4FC78091F10383FD4BC783E514
:105100000E949239882309F445C70E9416390F94EA
:10511000C80C6639710514F066E970E070938E0A68
:1051200060938D0A0E9474BD35C70E947AA732C76A
:1051300080E50E949239811106C083E50E94923970
:10514000882359F005C00E94F638811123C7F5CF96
:105150000E94E6386F3F710510F06FEF70E07093BA
:10516000920A6093910A16C780E50E9492398111D4
:1051700005C01092920A1092910A0CC70E94E6385C
:10518000672B09F007C7F5CF83E50E9449398823CB
:10519000A1F080913802882319F0E5E4F3E002C021
:1051A000EBE4F3E084918F010F5F1F4F882309F434
:1051B000F1C60E94AE39F801F5CF269A2E9881E00B
:1051C0008093380264E670E080E090E00E94E2A6FE
:1051D0000E94F6E6DFC60E9454BF0E94084E10925D
:1051E000920A1092910A68EE73E080E090E00E94CB
:1051F000AF95269A2E9A1092380260E081E593E0EE
:105200000E94F99BC7C610937B03C4C60E941CA7CB
:10521000C1C683E50E944939882309F4BBC60E94B0
:10522000163920E030E04AE754E40F949D070F94CC
:10523000CD0C6093F20C7093F30C8093F40C90936C
:10524000F50CA8C646E6C42E42E0D42E53E4E52E63
:105250005AE0F52E10E0D6018D916D010E9449397A
:10526000882309F46DC0133009F063C00E94163919
:105270004B015C0120E030E040EA51E40F94380734
:1052800087FF4EC0A501940160914F0A7091500AAA
:105290008091510A9091520A0F94600C2B013C01AD
:1052A0009B01AC0160913F0A7091400A8091410AD4
:1052B0009091420A0F949D0760933F0A7093400AB1
:1052C0008093410A9093420AA30192016091130ACC
:1052D0007091140A8091150A9091160A0F949D07F7
:1052E0006093130A7093140A8093150A9093160A18
:1052F0006091110470911204809113049091140430
:105300000F943C07A30192010F949D070F94CD0CBD
:105310006093110470931204809313049093140407
:1053200080924F0A9092500AA092510AB092520A6B
:1053300007C00E941639F7016083718382839383CB
:105340001F5FF4E0EF0EF11C143009F084CF0E94CF
:10535000E56320C60E94F34C83E50E9492398823BE
:1053600009F401C90E94E6386230710509F0FBC8F2
:105370000E94F6CF8BE50E94AE396091E10C7091EE
:10538000E20C8091E30C9091E40C42E00E94C73D56
:105390004091E50C5091E60C6091E70C7091E80C9F
:1053A00084E693E00E9409634091E90C5091EA0C75
:1053B0006091EB0C7091EC0C81E693E00E94096324
:1053C0008DE50E94AE398AE00E94AE39E3C5849132
:1053D0008F010F5F1F4F882321F00E94AE39F80123
:1053E000F6CF60E086E394E00E942AB861E08FE2A5
:1053F00094E00E942AB861E084E294E00E942AB816
:1054000061E084E194E00E942AB860E08BE094E0DF
:105410000E942AB861E081E094E00E942AB861E02D
:1054200087EF93E00E942AB861E08FEE93E00E943C
:105430002AB861E081EE93E00E942AB860E083ED33
:1054400093E00E942AB861E084EC93E00E942AB8BD
:1054500060E086EB93E00E942AB860E080EA93E087
:105460000E942AB860E08FE893E00E942AB860E0CA
:105470008AE793E00E942AB861E087E693E00E9401
:105480002AB888C580911B1490911C14DC012C91C2
:10549000222321F060E00E94339C7CC50E94F6E646
:1054A00079C500911B1410911C1483E0D12C40E0AD
:1054B0008150E1F0F8019081292F2B7F2134C1F731
:1054C00021812133A9F7913421F0953421F441E071
:1054D00002C0DD24D39498012E5F3F4F89012F5FD6
:1054E0003F4FD8019C919032C9F3E2CF442369F039
:1054F000EAEEF2E384917F01BFEFEB1AFB0A882307
:1055000021F00E94AE39F701F5CFDD2069F0ECE023
:10551000F5E084917F012FEFE21AF20A882321F04F
:105520000E94AE39F701F5CFD8018D918D01882306
:1055300009F44DCB0E94AE39F7CF0E9497682AC577
:1055400081E08093400B80933F0B24C583E50E944C
:105550009239882319F00E94E63802C060E070E0BA
:105560008B01112702301105D4F0EDE4F0E38491B2
:105570008F010F5F1F4F811103C0E0E1F5E004C010
:105580000E94AE39F801F3CF84918F010F5F1F4F56
:10559000882309F4FFC40E94AE39F801F5CF88E4EE
:1055A0000E9492398823A9F00E94E6386A3A710570
:1055B0003CF06530B1E07B072CF064E071E002C0A4
:1055C0006AEA70E0F801EE0FFF1FE151F64F7183B8
:1055D000608386E40E9492398823A9F00E94E6380D
:1055E000F801EE0FFF1FED50F64F718360836F3FA0
:1055F000710519F014F06FEF70E077FF02C060E002
:1056000070E07183608382E40E949239882309F4F8
:10561000C1C40E94E6386530710534F06838710500
:105620002CF067E870E002C065E070E0000F111F29
:10563000F801E551F64F71836083ACC488EC90E0CB
:105640000E94713D8111A6C484E40E9449398823D7
:1056500009F441C00E9416396B017C0111E020E081
:1056600030E0A9010F943807811101C010E01093B8
:10567000310D20E030E0A901C701B6010F943807D1
:10568000882349F10E941639E091E60A24E0E29F5E
:10569000F0011124E35DF24F608371838283938371
:1056A00020E030E0A90160912D0D70912E0D8091C8
:1056B0002F0D9091300D0F94380781110CC080E0B0
:1056C00090E0A0EEBFE380932D0D90932E0DA0935C
:1056D0002F0DB093300D0E9456645CC486E6E82E10
:1056E00082E0F82E07E11AE0D7018D917D010E943A
:1056F0004939882349F00E9416390F94CD0CF801DE
:1057000060837183828393830C5F1F4FFAE00732BB
:105710001F0751F70E948A633DC40C5F1F4FFAE0D8
:1057200007311F0709F436C4D7018D917D010E940E
:105730004939882391F30E941639F80160837183F7
:1057400082839383EACF83E50E9492398823A1F074
:105750000E94163960932F0A7093300A8093310AA1
:105760009093320A6093270A7093280A8093290A3B
:1057700090932A0A10E001C011E080E50E9492395E
:10578000882359F00E94163960932F0A7093300ACB
:105790008093310A9093320A10E082E50E94923998
:1057A000882359F00E94163960932B0A70932C0AB3
:1057B00080932D0A90932E0A10E084E50E9492397E
:1057C000882359F00E9416396093270A7093280A9B
:1057D0008093290A90932A0ADDC3112309F4DAC3BE
:1057E00040912F0A5091300A6091310A7091320A2B
:1057F00088E395E00E94096340912B0A50912C0A9E
:1058000060912D0A70912E0A85E395E00E9409634C
:105810004091270A5091280A6091290A70912A0A1A
:1058200082E395E00E9409638AE00E94AE39B2C328
:105830000E94A9B7AFC31F5FF4E0EF0EF11C133055
:1058400011F40C94B322D6018D916D010E94493957
:10585000882389F30E941639F7016083718382835C
:105860009383812F0E948F36E6CF0E94CBB692C3DE
:1058700083E50E949239882309F48CC30E94E6389C
:1058800070934D0260934C0285C38DED90E00E94B1
:10589000713D81117FC383E50E949239811103C05C
:1058A000EAEEF2E33BC00091E60A10E00E94E6381F
:1058B000000F111FF801E65BFD4F7183608380913B
:1058C000E60A90E08C01000F111F000F111F9801D4
:1058D0002A5B3D4F7901880F991FFC01E65BFD4F64
:1058E00060817181072E000C880B990B0F943E0785
:1058F0002AE037ED43E25CE30F949D07F801E05A9C
:10590000F04F20813181428153810F949D07D7014F
:105910006D937D938D939C9313973CC384918F01DA
:105920000F5F1F4F882321F00E94AE39F801F6CF98
:1059300085E40E94AE398091E60A805D0E94AE390E
:10594000E091E60AF0E0EE0FFF1FE65BFD4F60819D
:10595000718188E495E00E94266385E20E94AE3959
:105960008AE00E94AE3916C380E50E944939882337
:1059700009F410C30E94E6386B017C0183E50E94A4
:105980009239882321F00E94E6388B0102C00FEF84
:105990001FEFC8010196039708F0FCC2D7FCFAC2BA
:1059A0002C2DE0E5F5E08DE795E03491231709F41F
:1059B000FBC331968E179F07C1F7F9C380E50E949C
:1059C0004939882309F4E6C20E94E6386B017C015C
:1059D0008B01672B19F0EDE4F0E37FC083E50E94B3
:1059E0004939811103C0EAEEF2E307C00E94E638AC
:1059F00088E590E10E94B461CDC284917F01BFEF40
:105A0000EB1AFB0A882321F00E94AE39F701F5CF8B
:105A100060E070E086E995E00E94266380915A106C
:105A200028E532E06901C81AD10887FDD394CC0C6F
:105A3000DD1CCC0CDD1C0D2C000CEE08FF08809149
:105A4000591028E830E04901881A910887FD93949D
:105A5000880C991C880C991C092C000CAA08BB08FE
:105A6000809158108F3FB9F090E0FC01EE0FFF1FBE
:105A70008E0F9F1FFC01E551F04F0181128133E031
:105A8000000F111F3A95E1F744E0169507954A95E6
:105A9000E1F70E5F1F4F98012F5F3F4FC901330F92
:105AA000AA0BBB0B9C01AD01281939094A095B09F6
:105AB000A4EBB0E00F94640BA701960128193909F3
:105AC0004A095B090F94480BB90183E995E00E94EC
:105AD00026638AE00E94AE395DC284918F010F5F18
